:020000040800F2
:1000000000000320A9190008F1180008F3180008DF
:10001000F5180008F7180008F9180008000000009B
:10002000000000000000000000000000FB180008B5
:10003000FD18000800000000FF1800080119000862
:10004000F9190008F9190008F9190008F919000848
:10005000F9190008F9190008F9190008F919000838
:10006000F9190008F9190008F9190008F919000828
:10007000F9190008F9190008F9190008F919000818
:10008000F9190008F9190008F9190008F919000808
:10009000F9190008F9190008F9190008F9190008F8
:1000A000F919000871170008F9190008F919000872
:1000B000F9190008F9190008F9190008F9190008D8
:1000C000F9190008F9190008F9190008F9190008C8
:1000D000F9190008F9190008F9190008F9190008B8
:1000E000F9190008F9190008F9190008F9190008A8
:1000F000F9190008F9190008F9190008F919000898
:10010000F9190008F9190008F9190008F919000887
:10011000F9190008F9190008F9190008F919000877
:10012000F9190008F9190008F9190008F919000867
:10013000F9190008F9190008F9190008F919000857
:10014000F9190008F9190008F9190008F919000847
:10015000F9190008F9190008F9190008F919000837
:10016000F9190008F9190008F9190008F919000827
:10017000F9190008F9190008F91900080000000031
:10018000F9190008F9190008F9190008F919000807
:100190001D170008F9190008F9190008F9190008D5
:0C01A000F9190008F9190008F919000805
:1001B00010B5054C237833B9044B13B10448AFF3A1
:1001C00000800123237010BD0C00002000000000FF
:1001D000541A000808B5034B1BB103490348AFF399
:1001E000008008BD0000000010000020541A000824
:1001F00081F0004102E000BF83F0004330B54FEAD8
:1002000041044FEA430594EA050F08BF90EA020F44
:100210001FBF54EA000C55EA020C7FEA645C7FEAD7
:10022000655C00F0E2804FEA5454D4EB5555B8BFFA
:100230006D420CDD2C4480EA020281EA030382EA6B
:10024000000083EA010180EA020281EA0303362DFD
:1002500088BF30BD11F0004F4FEA01314FF4801CD0
:100260004CEA113102D0404261EB410113F0004FE2
:100270004FEA03334CEA133302D0524263EB430399
:1002800094EA050F00F0A780A4F10104D5F1200E37
:100290000DDB02FA0EFC22FA05F2801841F1000192
:1002A00003FA0EF2801843FA05F359410EE0A5F166
:1002B00020050EF1200E012A03FA0EFC28BF4CF097
:1002C000020C43FA05F3C01851EBE37101F000454D
:1002D00007D54FF0000EDCF1000C7EEB00006EEB5A
:1002E0000101B1F5801F1BD3B1F5001F0CD34908E4
:1002F0005FEA30004FEA3C0C04F101044FEA44523B
:1003000012F5800F80F09A80BCF1004F08BF5FEAC1
:10031000500C50F1000041EB045141EA050130BDA1
:100320005FEA4C0C404141EB010111F4801FA4F144
:100330000104E9D191F0000F04BF01460020B1FA99
:1003400081F308BF2033A3F10B03B3F120020CDAD1
:100350000C3208DD02F1140CC2F10C0201FA0CF0AF
:1003600021FA02F10CE002F11402D8BFC2F1200C14
:1003700001FA02F120FA0CFCDCBF41EA0C019040CA
:10038000E41AA2BF01EB0451294330BD6FEA040413
:100390001F3C1CDA0C340EDC04F11404C4F12002FE
:1003A00020FA04F001FA02F340EA030021FA04F310
:1003B00045EA030130BDC4F10C04C4F1200220FA67
:1003C00002F001FA04F340EA0300294630BD21FAA5
:1003D00004F0294630BD94F0000F83F4801306BF6B
:1003E00081F480110134013D4EE77FEA645C18BF5F
:1003F0007FEA655C29D094EA050F08BF90EA020FF6
:1004000005D054EA000C04BF1946104630BD91EAED
:10041000030F1EBF0021002030BD5FEA545C05D1F0
:100420004000494128BF41F0004130BD14F580042F
:100430003CBF01F5801130BD01F0004545F0FE41A3
:1004400041F470014FF0000030BD7FEA645C1ABFD8
:10045000194610467FEA655C1CBF0B46024650EA0F
:10046000013406BF52EA033591EA030F41F400213B
:1004700030BD00BF90F0000F04BF0021704730B5C1
:100480004FF4806404F132044FF000054FF0000196
:1004900050E700BF90F0000F04BF0021704730B557
:1004A0004FF4806404F1320410F0004548BF40422C
:1004B0004FF000013EE700BF42004FEAE2014FEA81
:1004C00031014FEA02701FBF12F07F4393F07F4F5C
:1004D00081F06051704732F07F4208BF704793F05F
:1004E0007F4F04BF41F40021704730B54FF4607472
:1004F00001F0004521F000411CE700BF50EA010275
:1005000008BF704730B54FF000050AE050EA01021D
:1005100008BF704730B511F0004502D5404261EB8D
:1005200041014FF4806404F132045FEA915C3FF4CE
:10053000D8AE4FF003025FEADC0C18BF03325FEA6B
:10054000DC0C18BF033202EBDC02C2F1200300FA1C
:1005500003FC20FA02F001FA03FE40EA0E0021FA41
:1005600002F11444BDE600BF70B54FF0FF0C4CF42F
:10057000E06C1CEA11541DBF1CEA135594EA0C0FE1
:1005800095EA0C0F00F0DEF82C4481EA030621EA1C
:100590004C5123EA4C5350EA013518BF52EA033557
:1005A00041F4801143F4801338D0A0FB02CE4FF009
:1005B0000005E1FB02E506F00042E0FB03E54FF039
:1005C0000006E1FB03569CF0000F18BF4EF0010E31
:1005D000A4F1FF04B6F5007F64F5407404D25FEA2D
:1005E0004E0E6D4146EB060642EAC62141EA5551E0
:1005F0004FEAC52040EA5E504FEACE2EB4F1FD0C22
:1006000088BFBCF5E06F1ED8BEF1004F08BF5FEA9F
:10061000500E50F1000041EB045170BD06F0004651
:1006200046EA010140EA020081EA0301B4EB5C04FE
:10063000C2BFD4EB0C0541EA045170BD41F48011F6
:100640004FF0000E013C00F3AB8014F1360FDEBF1B
:10065000002001F0004170BDC4F10004203C35DAF7
:100660000C341BDC04F11404C4F1200500FA05F37A
:1006700020FA04F001FA05F240EA020001F000421B
:1006800021F0004110EBD37021FA04F642EB060191
:100690005EEA430E08BF20EAD37070BDC4F10C04BB
:1006A000C4F1200500FA04F320FA05F001FA04F27F
:1006B00040EA020001F0004110EBD37041F100016B
:1006C0005EEA430E08BF20EAD37070BDC4F1200576
:1006D00000FA05F24EEA020E20FA04F301FA05F2DE
:1006E00043EA020321FA04F001F0004121FA04F286
:1006F00020EA020000EBD3705EEA430E08BF20EA56
:10070000D37070BD94F0000F0FD101F0004640008F
:1007100041EB010111F4801F08BF013CF7D041EA11
:10072000060195F0000F18BF704703F00046520015
:1007300043EB030313F4801F08BF013DF7D043EAE6
:100740000603704794EA0C0F0CEA135518BF95EA9C
:100750000C0F0CD050EA410618BF52EA4306D1D123
:1007600081EA030101F000414FF0000070BD50EA42
:10077000410606BF1046194652EA430619D094EACC
:100780000C0F02D150EA013613D195EA0C0F05D1B6
:1007900052EA03361CBF104619460AD181EA03010A
:1007A00001F0004141F0FE4141F470014FF00000C2
:1007B00070BD41F0FE4141F4780170BD70B54FF05D
:1007C000FF0C4CF4E06C1CEA11541DBF1CEA1355DD
:1007D00094EA0C0F95EA0C0F00F0A7F8A4EB0504BF
:1007E00081EA030E52EA03354FEA013100F08880B6
:1007F0004FEA03334FF0805545EA131343EA12637F
:100800004FEA022245EA111545EA10654FEA002633
:100810000EF000419D4208BF964244F1FD0404F5EC
:10082000407402D25B084FEA3202B61A65EB030548
:100830005B084FEA32024FF480104FF4002CB6EB05
:10084000020E75EB030E22BFB61A754640EA0C0085
:100850005B084FEA3202B6EB020E75EB030E22BFC5
:10086000B61A754640EA5C005B084FEA3202B6EB06
:10087000020E75EB030E22BFB61A754640EA9C00C5
:100880005B084FEA3202B6EB020E75EB030E22BF95
:10089000B61A754640EADC0055EA060E18D04FEA53
:1008A000051545EA16754FEA06164FEAC30343EAF3
:1008B00052734FEAC2025FEA1C1CC0D111F4801FC0
:1008C0000BD141EA00014FF000004FF0004CB6E7B9
:1008D00011F4801F04BF01430020B4F1FD0C88BF58
:1008E000BCF5E06F3FF6AFAEB5EB030C04BFB6EB63
:1008F000020C5FEA500C50F1000041EB045170BD56
:100900000EF0004E4EEA113114EB5C04C2BFD4EB82
:100910000C0541EA045170BD41F480114FF0000E06
:10092000013C90E645EA060E8DE60CEA135594EA82
:100930000C0F08BF95EA0C0F3FF43BAF94EA0C0F85
:100940000AD150EA01347FF434AF95EA0C0F7FF4FA
:1009500025AF104619462CE795EA0C0F06D152EA4E
:1009600003353FF4FDAE1046194622E750EA410632
:1009700018BF52EA43067FF4C5AE50EA41047FF443
:100980000DAF52EA43057FF4EBAE12E74A0011D2F5
:1009900012F5001211D20DD56FF47873B3EB6252D9
:1009A0000ED44FEAC12343F0004343EA505323FAE5
:1009B00002F070474FF00000704750EA013002D15A
:1009C0004FF0FF3070474FF00000704753B94AB9FD
:1009D000002908BF00281CBF4FF0FF314FF0FF3047
:1009E00000F072B9ADF1080C6DE904CE00F006F824
:1009F000DDF804E0DDE9022304B070472DE9F0479B
:100A0000089E04468846002B4BD18A42154667D97A
:100A1000B2FA82F24AB1C2F1200701FA02F320FAD7
:100A200007F7954047EA030894404FEA154E230C18
:100A3000B8FBFEF71FFA85FC0EFB178843EA084354
:100A400007FB0CF1994209D9EB1807F1FF3080F050
:100A50001B81994240F21881023F2B445B1AA4B2D9
:100A6000B3FBFEF00EFB103344EA034400FB0CFC26
:100A7000A44509D92C1900F1FF3380F00781A44562
:100A800040F2048102382C4440EA0740A4EB0C04F5
:100A900000271EB1D4400023C6E900433946BDE813
:100AA000F0878B4209D9002E00F0EB800027C6E9C1
:100AB000000138463946BDE8F087B3FA83F7002FC6
:100AC00047D18B4202D3824200F2FA80841A61EB52
:100AD000030301209846002EE0D0C6E90048DDE778
:100AE00002B9FFDEB2FA82F2002A40F08F80491B81
:100AF0004FEA154E1FFA85F80127B1FBFEFC230CC7
:100B00000EFB1C1143EA014308FB0CF1994207D983
:100B1000EB180CF1FF3002D2994200F2CD808446EE
:100B2000591AA3B2B1FBFEF00EFB101443EA0444C1
:100B300008FB00F8A04507D92C1900F1FF3302D2B9
:100B4000A04500F2B6801846A4EB080440EA0C4029
:100B50009FE7C7F1200CBB4022FA0CFE4EEA030EC1
:100B600001FA07F420FA0CF521FA0CF34FEA1E48BB
:100B70002543B3FBF8F92C0C08FB19331FFA8EFA46
:100B800044EA034309FB0AF49C4202FA07F200FA22
:100B900007F10BD91EEB030309F1FF3080F08780CA
:100BA0009C4240F28480A9F1020973441B1BADB240
:100BB000B3FBF8F008FB103345EA034400FB0AFAE4
:100BC000A24508D91EEB040400F1FF336BD2A24505
:100BD00069D90238744440EA0940A0FB0289A4EBB9
:100BE0000A044C45C2464B4654D351D0002E69D01E
:100BF000B1EB0A0564EB030404FA0CFCFD40FC4075
:100C00004CEA0505C6E90054002747E7C2F1200376
:100C100020FA03F7954001FA02F021FA03F34FEAB4
:100C2000154E3843010CB3FBFEF71FFA85F80EFB97
:100C3000173341EA034107FB08F38B4204FA02F43D
:100C400007D9691807F1FF3C2FD28B422DD9023FFB
:100C50002944CB1A81B2B3FBFEF00EFB103341EAFC
:100C6000034100FB08F38B4207D9691800F1FF3CF0
:100C700017D28B4215D902382944C91A40EA0747CE
:100C80003BE73746304609E70746E7E61846FBE606
:100C90004145ABD2B8EB020A69EB0E0201381346AC
:100CA000A4E76046E9E7184695E76746D1E781463D
:100CB0007CE702382C4447E7ACF1020C2B442FE7C9
:100CC000384608E73746E9E6704700BF10B50446E6
:100CD0000E4B18784FF47A73B3FBF0F30C4A10689C
:100CE000B0FBF3F000F088F868B90F2C01D90120AF
:100CF0000AE0002221464FF0FF3000F049F8034B94
:100D00005C60002000E0012010BD00BF000000205A
:100D10000800002008B50B4B1A6842F400721A60F4
:100D20001A6842F480621A601A6842F480721A608B
:100D3000032000F01BF80020FFF7C8FF00F0BCFD07
:100D4000002008BD003C0240034A1168034B1B7899
:100D50000B441360704700BF2C00002000000020EF
:100D6000014B1868704700BF2C000020074AD36869
:100D700023F4E0631B041B0C000200F4E060184342
:100D800040F0BF6040F40030D060704700ED00E0FC
:100D900030B4174BDB68C3F30223C3F10704042C00
:100DA00028BF04241D1D062D18D9033B4FF0FF3525
:100DB00005FA04F421EA0401994005FA03F322EA52
:100DC0000303194300280BDB0901C9B200F160409D
:100DD00000F5614080F8001330BC70470023E5E760
:100DE00000F00F000901C9B2024B1954F4E700BF2B
:100DF00000ED00E014ED00E00138B0F1807F0AD290
:100E0000064B5860064AF02182F8231000209860B3
:100E100007221A6070470120704700BF10E000E011
:100E200000ED00E0002800F0BB8170B582B0044600
:100E3000036813F0010F3BD0A74B9B6803F00C0332
:100E4000042B2CD0A44B9B6803F00C03082B21D05F
:100E50006368B3F5803F4FD0B3F5A02F52D09E4BBF
:100E60001A6822F480321A601A6822F480221A600A
:100E70006368002B50D0FFF773FF0546964B1B6845
:100E800013F4003F14D1FFF76BFF401B6428F5D922
:100E900003208AE1904B5B6813F4800FD8D08E4B0F
:100EA0001B6813F4003F03D06368002B00F07A81C5
:100EB000236813F0020F55D0874B9B6813F00C0F7B
:100EC0003ED0854B9B6803F00C03082B33D0E368BE
:100ED000002B68D0814B01221A60FFF741FF0546C5
:100EE0007D4B1B6813F0020F54D1FFF739FF401BF5
:100EF0000228F5D9032058E1774A136843F4803378
:100F00001360B5E7744B1A6842F480221A601A68BD
:100F100042F480321A60ABE7FFF722FF05466E4BC2
:100F20001B6813F4003FC3D0FFF71AFF401B64286F
:100F3000F5D9032039E1684B5B6813F4800FC6D103
:100F4000654B1B6813F0020F04D0E368012B01D03E
:100F500001202AE1604A136823F0F803216943EA7B
:100F6000C1031360236813F0080F40D0636963B3B3
:100F70005B4B01221A60FFF7F3FE0546564B5B6F91
:100F800013F0020F33D1FFF7EBFE401B0228F5D917
:100F900003200AE1504A136823F0F803216943EA69
:100FA000C1031360DEE74D4B00221A60FFF7D8FE45
:100FB0000546494B1B6813F0020FD3D0FFF7D0FE54
:100FC000401B0228F5D90320EFE0454B00221A60B0
:100FD000FFF7C6FE0546404B5B6F13F0020F06D0CD
:100FE000FFF7BEFE401B0228F5D90320DDE0236891
:100FF00013F0040F79D0384B1B6C13F0805F33D1A2
:1010000000230193344B1A6C42F080521A641B6C1B
:1010100003F080530193019B0125324B1B6813F4AD
:10102000807F23D0A368012B34D0052B38D02A4BE6
:101030001A6F22F001021A671A6F22F004021A676F
:10104000A368002B36D0FFF78BFE0646224B1B6FA2
:1010500013F0020F48D1FFF783FE801B41F2883363
:101060009842F3D90320A0E00025D6E71D4A136873
:1010700043F480731360FFF773FE0646194B1B6839
:1010800013F4807FCED1FFF76BFE801B0228F5D9C9
:1010900003208AE0104A136F43F001031367CFE780
:1010A0000D4B1A6F42F004021A671A6F42F00102E8
:1010B0001A67C5E7FFF754FE0646074B1B6F13F090
:1010C000020F11D0FFF74CFE801B41F2883398428B
:1010D000F3D9032069E000BF003802400000474216
:1010E000800E474200700040E5B9A369002B5BD039
:1010F000304A926802F00C02082A58D0022B17D00E
:101100002D4B00221A60FFF72BFE0446294B1B686B
:1011100013F0007F42D0FFF723FE001B0228F5D911
:10112000032042E0234A136C23F080531364DCE76E
:10113000214B00221A60FFF713FE05461D4B1B686A
:1011400013F0007F06D0FFF70BFE401B0228F5D9F5
:1011500003202AE0E369226A1343626A43EA8213A6
:10116000A26A5208013A43EA0243E26A43EA02638E
:10117000104A5360104B01221A60FFF7F1FD04463C
:101180000C4B1B6813F0007F06D1FFF7E9FD001B35
:101190000228F5D9032008E0002006E0002004E042
:1011A00001207047012000E0002002B070BD012046
:1011B000FBE700BF0038024060004742264B9B68B7
:1011C00003F00C03042B44D0082B01D023487047B4
:1011D0002DE9F04B204B5A6802F03F025B6813F494
:1011E000800F13D01C4B5968C1F3881100231C4891
:1011F000A1FB0001FFF7EAFB174B5B68C3F3014358
:1012000001335B00B0FBF3F0BDE8F08B124B5B6881
:10121000C3F388131E4600275C010025E41A65EB22
:101220000705A90141EA9461A001001B61EB0501DA
:10123000CB0043EA5073C400A01943EB07018B02B3
:1012400043EA90538402204619460023FFF7BEFB71
:10125000D2E70348704700BF003802400024F40082
:1012600040787D01002800F09D8070B504464F4B0A
:101270001B6803F00F038B4209D2CBB24B4A1370A9
:10128000136803F00F038B4201D0012070BD236867
:1012900013F0020F17D013F0040F04D0444A9368E0
:1012A00043F4E0539360236813F0080F04D0404ADE
:1012B000936843F4604393603D4A936823F0F003DE
:1012C000A068034393600D46236813F0010F32D0EA
:1012D0006368012B21D09A1E012A25D9344A12684D
:1012E00012F0020F60D032498A6822F003021343E1
:1012F0008B60FFF735FD06462D4B9B6803F00C0312
:101300006268B3EB820F16D0FFF72AFD801B41F213
:1013100088339842F0D90320B8E7254A126812F4BE
:10132000003FE0D10120B1E7214A126812F0007FAE
:10133000D9D10120AAE71D4B1B6803F00F03AB4274
:1013400009D9EAB2194B1A701B6803F00F03AB42BC
:1013500001D001209AE7236813F0040F06D0144A45
:10136000936823F4E053E1680B439360236813F020
:10137000080F07D00E4A936823F46043216943EABB
:10138000C1039360FFF71AFF094B9B68C3F3031374
:10139000084AD35CD840084B18600020FFF796FC41
:1013A000002073E70120704701206FE7003C0240F6
:1013B000003802406C1A000808000020F0B4069DB6
:1013C00007684E000324B440E443274007600768E1
:1013D000B2401743076042688B401A4342608368FB
:1013E000234083608368049AB24013438360C368D8
:1013F0001C40C460C368059A02FA06F61E43C66024
:10140000072910D9436A01F18041083989000F2268
:101410008A4023EA02034362436A05FA01F1194351
:101420004162F0BC7047036A89000F228A4023EAB8
:1014300002030362036A05FA01F119430162F0E74E
:1014400070B406684D000324AC40E44326400660B7
:101450000668AA401643066042688B401343436007
:101460008368234083608368039AAA4013438360A0
:10147000C3681C40C460C368049A02FA05F51D43A2
:10148000C56070BC70473AB983691031012202FA15
:1014900001F11943816170478369012202FA01F168
:1014A0001943816170470269012303FA01F10A427D
:1014B00001D10020704718467047000082B000211B
:1014C00000910B4B1A6B42F080021A631A6B02F008
:1014D00080020092009A01911A6B42F001021A6395
:1014E0001B6B03F001030193019B02B0704700BF27
:1014F0000038024030B595B03022002108A800F035
:10150000A1FA00240394049405940694079401948A
:101510001A4B1A6C42F080521A641B6C03F0805311
:101520000193019B0294164A136823F4404343F449
:1015300080431360136803F440430293029B022527
:10154000089501230B9310230C930E950F940823F9
:1015500010934023119312950423139308A8FFF7C7
:1015600061FC0F230393049590230593069407943D
:10157000214603A8FFF776FE15B030BD00380240C3
:10158000007000400000000080B584B05A4B5A6AD9
:1015900043F201010A435A625A6A22F4405222F08D
:1015A00001025A625A6C0A435A641A6942F05302A1
:1015B0001A611A6922F053021A611A6B42F053023F
:1015C0001A634E4F022401940323009300231A460A
:1015D00019463846FFF734FF0025019500942B4645
:1015E00001220D214648FFF72BFF052602960195A3
:1015F00000942B46224604213846FFF7DFFE029670
:10160000019500942B46224631463846FFF7D6FE18
:1016100007F580670296019500942B462246042127
:101620003846FFF7CBFE0296019500942B462246E2
:1016300031463846FFF7C2FE07F54067029601952E
:1016400000942B46224621463846FFF7B7FE029605
:10165000019500942B46224604213846FFF7AEFE42
:101660000296019500942B46224631463846FFF7F4
:10167000A5FE0296019500942B4622460621384687
:10168000FFF79CFE1F4E2049304600F09BF81F4D8F
:101690001F49284600F096F81E4C9FED150B1E4979
:1016A000204600F06EF91921204600F07AF9012158
:1016B000204600F05EF908220023204600F04AF997
:1016C000192000F067F8542000F064F8FFF722FBBF
:1016D000FFF710FFFFF7F2FE304600F07CF82846D7
:1016E00000F079F801220023204600F033F9FEE7EC
:1016F000FCA9F1D24D62503F003802400000024088
:1017000000180240003001403C0004000034014059
:1017100038004000000001400024F40008B5114BDF
:101720009B6813F0010F04D00E4BDB68DBB20E4A4E
:1017300013700D4B19780D4A51721B78DBB2232BB5
:1017400008D0094B1B78DBB2452B07D0074800F0C7
:1017500055F808BD134623221A70F7E7034B4522BC
:101760001A70F3E700340140280000203000002008
:1017700008B5064800F074F80548036923F0010332
:1017800003610122002300F0E5F808BD3C000020C1
:1017900000000140034600280EDB5B11424200F0CE
:1017A0001F0002F01F0258BF5042012202FA00F04F
:1017B000034A42F82300704700F11F03EDE700BF22
:1017C00000E100E003688AB213430360436843EA20
:1017D000114141607047036843F040030360704764
:1017E000836813F0020FFBD0C1607047836813F069
:1017F000010FFBD0C068C0B2704700000378452BD2
:101800001AD010B50446462B19D0232B02D0FF2343
:1018100003701DE0FF23037000210E48FFF743FE15
:10182000207220B101210C48FFF7DAFF10E00021FF
:101830000948FFF7D5FF0BE0462303707047427A53
:1018400002F001020D210548FFF71DFEFF23237062
:1018500010BD00BF000002400034014000180240EB
:1018600038B504460378032B09D8DFE803F00209F2
:10187000151C23210F48FFF7B3FF0123237038BD48
:101880000C4D00212846FFF7ABFF2846FFF7AEFFBF
:10189000607002232370F2E745210648FFF7A0FF9E
:1018A00003232370EBE741780248FFF799FF0023F9
:1018B0002370E4E70030014082B0002100910B4B1F
:1018C0005A6C42F480425A645A6C02F4804200928C
:1018D000009A01911A6C42F080521A641B6C03F05A
:1018E00080530193019B02B0704700BF0038024053
:1018F0007047FEE7FEE7FEE7FEE770477047704778
:1019000008B5FFF721FA08BD0F49D1F8883043F434
:101910007003C1F888300D4B1A6842F001021A605A
:10192000002098601A6822F0847222F480321A60D3
:10193000074A5A601A6822F480221A60D8604FF071
:1019400000638B60704700BF00ED00E0003802408C
:1019500010300024416821EA0301416041680B43D3
:101960004360036823EA0203036003681A430260CA
:101970007047C36823EA0103C360C3681943C160A9
:101980007047D0B5044657EC106B0846FEF772FD61
:1019900032463B46FEF7E8FDFEF7F8FF0138A0624D
:1019A000D0BDC16270470000DFF834D0002103E0F1
:1019B0000C4B5B58435004310B480C4B42189A4275
:1019C000F6D30B4A02E0002342F8043B094B9A424B
:1019D000F9D3FFF799FF00F011F8FFF7D5FD704735
:1019E00000000320941A0008000000200C000020D2
:1019F0000C00002040000020FEE7000070B50D4EF6
:101A00000D4CA41BA4100025A54209D10B4E0C4C73
:101A100000F020F8A41BA4100025A54205D170BD3C
:101A200056F8253098470135EEE756F825309847A7
:101A30000135F2E78C1A00088C1A00088C1A00088D
:101A4000901A000802440346934200D1704703F8FD
:101A5000011BF9E7F8B500BFF8BC08BC9E4670470B
:0C1A6000F8B500BFF8BC08BC9E467047FB
:101A6C000000000000000000010203040607080942
:081A7C00000000000102030458
:081A840078EFFF7F0100000074
:041A8C00D501000878
:041A9000B101000898
:0C1A940001000000100000000024F4001D
:04000005080019A92D
:00000001FF
