:020000040800F2
:1000000000000320011000089D0F00089F0F00084A
:10001000A10F0008A30F0008A50F000800000000B2
:10002000000000000000000000000000A70F000812
:10003000A90F000800000000AB0F0008AD0F00087A
:10004000511000085110000851100008511000080C
:1000500051100008511000085110000851100008FC
:1000600051100008511000085110000851100008EC
:1000700051100008511000085110000851100008DC
:1000800051100008511000085110000851100008CC
:1000900051100008511000085110000851100008BC
:1000A00051100008511000085110000851100008AC
:1000B000511000085110000851100008511000089C
:1000C000511000085110000851100008D90E000806
:1000D000511000085110000851100008511000087C
:1000E000511000085110000851100008511000086C
:1000F000511000085110000851100008511000085C
:10010000511000085110000851100008511000084B
:10011000511000085110000851100008511000083B
:10012000511000085110000851100008511000082B
:10013000511000085110000851100008511000081B
:10014000511000085110000851100008511000080B
:1001500051100008511000085110000851100008FB
:1001600051100008511000085110000851100008EB
:100170005110000851100008511000080000000044
:1001800051100008511000085110000851100008CB
:10019000F90E000851100008511000085110000815
:0C01A00051100008511000085110000818
:1001AC0010B5054C237833B9044B13B10448AFF3A5
:1001BC0000800123237010BD0C0000200000000003
:1001CC00AC10000808B5034B1BB103490348AFF34F
:1001DC00008008BD0000000010000020AC100008DA
:1001EC0053B94AB9002908BF00281CBF4FF0FF3192
:1001FC004FF0FF3000F072B9ADF1080C6DE904CE90
:10020C0000F006F8DDF804E0DDE9022304B07047E5
:10021C002DE9F047089E04468846002B4BD18A42B4
:10022C00154667D9B2FA82F24AB1C2F1200701FA37
:10023C0002F320FA07F7954047EA030894404FEA87
:10024C00154E230CB8FBFEF71FFA85FC0EFB178826
:10025C0043EA084307FB0CF1994209D9EB1807F163
:10026C00FF3080F01B81994240F21881023F2B44F1
:10027C005B1AA4B2B3FBFEF00EFB103344EA03444A
:10028C0000FB0CFCA44509D92C1900F1FF3380F0BC
:10029C000781A44540F2048102382C4440EA07400F
:1002AC00A4EB0C0400271EB1D4400023C6E9004384
:1002BC003946BDE8F0878B4209D9002E00F0EB805F
:1002CC000027C6E9000138463946BDE8F087B3FA85
:1002DC0083F7002F47D18B4202D3824200F2FA807F
:1002EC00841A61EB030301209846002EE0D0C6E986
:1002FC000048DDE702B9FFDEB2FA82F2002A40F0D4
:10030C008F80491B4FEA154E1FFA85F80127B1FB68
:10031C00FEFC230C0EFB1C1143EA014308FB0CF101
:10032C00994207D9EB180CF1FF3002D2994200F236
:10033C00CD808446591AA3B2B1FBFEF00EFB10140B
:10034C0043EA044408FB00F8A04507D92C1900F136
:10035C00FF3302D2A04500F2B6801846A4EB080485
:10036C0040EA0C409FE7C7F1200CBB4022FA0CFE80
:10037C004EEA030E01FA07F420FA0CF521FA0CF3FD
:10038C004FEA1E482543B3FBF8F92C0C08FB193334
:10039C001FFA8EFA44EA034309FB0AF49C4202FA60
:1003AC0007F200FA07F10BD91EEB030309F1FF303A
:1003BC0080F087809C4240F28480A9F1020973444A
:1003CC001B1BADB2B3FBF8F008FB103345EA03443A
:1003DC0000FB0AFAA24508D91EEB040400F1FF3316
:1003EC006BD2A24569D90238744440EA0940A0FB9B
:1003FC000289A4EB0A044C45C2464B4654D351D057
:10040C00002E69D0B1EB0A0564EB030404FA0CFC72
:10041C00FD40FC404CEA0505C6E90054002747E7BF
:10042C00C2F1200320FA03F7954001FA02F021FAF9
:10043C0003F34FEA154E3843010CB3FBFEF71FFADA
:10044C0085F80EFB173341EA034107FB08F38B4297
:10045C0004FA02F407D9691807F1FF3C2FD28B423A
:10046C002DD9023F2944CB1A81B2B3FBFEF00EFB0F
:10047C00103341EA034100FB08F38B4207D969189A
:10048C0000F1FF3C17D28B4215D902382944C91A06
:10049C0040EA07473BE73746304609E70746E7E6B9
:1004AC001846FBE64145ABD2B8EB020A69EB0E02EB
:1004BC0001381346A4E76046E9E7184695E7674616
:1004CC00D1E781467CE702382C4447E7ACF1020CBB
:1004DC002B442FE7384608E73746E9E6704700BF5C
:1004EC0010B504460E4B18784FF47A73B3FBF0F347
:1004FC000C4A1068B0FBF3F000F088F868B90F2CC8
:10050C0001D901200AE0002221464FF0FF3000F013
:10051C0049F8034B5C60002000E0012010BD00BFD7
:10052C00000000200800002008B50B4B1A6842F4AC
:10053C0000721A601A6842F480621A601A6842F4F7
:10054C0080721A60032000F01BF80020FFF7C8FF30
:10055C0000F002FD002008BD003C0240034A116877
:10056C00034B1B780B441360704700BF2C0000201A
:10057C0000000020014B1868704700BF2C000020C1
:10058C00074AD36823F4E0631B041B0C000200F43D
:10059C00E060184340F0BF6040F40030D06070471A
:1005AC0000ED00E030B4174BDB68C3F30223C3F15A
:1005BC000704042C28BF04241D1D062D18D9033B49
:1005CC004FF0FF3505FA04F421EA0401994005FACD
:1005DC0003F322EA0303194300280BDB0901C9B218
:1005EC0000F1604000F5614080F8001330BC7047AA
:1005FC000023E5E700F00F000901C9B2024B1954C2
:10060C00F4E700BF00ED00E014ED00E00138B0F1BC
:10061C00807F0AD2064B5860064AF02182F82310DC
:10062C000020986007221A6070470120704700BFB5
:10063C0010E000E000ED00E0002800F0BB8170B598
:10064C0082B00446036813F0010F3BD0A74B9B68A4
:10065C0003F00C03042B2CD0A44B9B6803F00C036D
:10066C00082B21D06368B3F5803F4FD0B3F5A02F92
:10067C0052D09E4B1A6822F480321A601A6822F407
:10068C0080221A606368002B50D0FFF773FF054679
:10069C00964B1B6813F4003F14D1FFF76BFF401B04
:1006AC006428F5D903208AE1904B5B6813F4800F22
:1006BC00D8D08E4B1B6813F4003F03D06368002B1B
:1006CC0000F07A81236813F0020F55D0874B9B689A
:1006DC0013F00C0F3ED0854B9B6803F00C03082BDA
:1006EC0033D0E368002B68D0814B01221A60FFF7EE
:1006FC0041FF05467D4B1B6813F0020F54D1FFF7E9
:10070C0039FF401B0228F5D9032058E1774A1368BA
:10071C0043F480331360B5E7744B1A6842F48022BB
:10072C001A601A6842F480321A60ABE7FFF722FFB6
:10073C0005466E4B1B6813F4003FC3D0FFF71AFF3E
:10074C00401B6428F5D9032039E1684B5B6813F42E
:10075C00800FC6D1654B1B6813F0020F04D0E36801
:10076C00012B01D001202AE1604A136823F0F80321
:10077C00216943EAC1031360236813F0080F40D0CA
:10078C00636963B35B4B01221A60FFF7F3FE054606
:10079C00564B5B6F13F0020F33D1FFF7EBFE401B90
:1007AC000228F5D903200AE1504A136823F0F80314
:1007BC00216943EAC1031360DEE74D4B00221A6046
:1007CC00FFF7D8FE0546494B1B6813F0020FD3D038
:1007DC00FFF7D0FE401B0228F5D90320EFE0454B74
:1007EC0000221A60FFF7C6FE0546404B5B6F13F004
:1007FC00020F06D0FFF7BEFE401B0228F5D90320DE
:10080C00DDE0236813F0040F79D0384B1B6C13F028
:10081C00805F33D100230193344B1A6C42F0805229
:10082C001A641B6C03F080530193019B0125324B1E
:10083C001B6813F4807F23D0A368012B34D0052BC5
:10084C0038D02A4B1A6F22F001021A671A6F22F065
:10085C0004021A67A368002B36D0FFF78BFE0646FE
:10086C00224B1B6F13F0020F48D1FFF783FE801B46
:10087C0041F288339842F3D90320A0E00025D6E753
:10088C001D4A136843F480731360FFF773FE06462A
:10089C00194B1B6813F4807FCED1FFF76BFE801BC6
:1008AC000228F5D903208AE0104A136F43F00103A4
:1008BC001367CFE70D4B1A6F42F004021A671A6FD9
:1008CC0042F001021A67C5E7FFF754FE0646074BD4
:1008DC001B6F13F0020F11D0FFF74CFE801B41F27F
:1008EC0088339842F3D9032069E000BF00380240F6
:1008FC0000004742800E474200700040E5B9A369F2
:10090C00002B5BD0304A926802F00C02082A58D0B7
:10091C00022B17D02D4B00221A60FFF72BFE04463A
:10092C00294B1B6813F0007F42D0FFF723FE001BFE
:10093C000228F5D9032042E0234A136C23F080539C
:10094C001364DCE7214B00221A60FFF713FE054607
:10095C001D4B1B6813F0007F06D0FFF70BFE401BEE
:10096C000228F5D903202AE0E369226A1343626A5C
:10097C0043EA8213A26A5208013A43EA0243E26A4A
:10098C0043EA0263104A5360104B01221A60FFF7CE
:10099C00F1FD04460C4B1B6813F0007F06D1FFF7EA
:1009AC00E9FD001B0228F5D9032008E0002006E031
:1009BC00002004E001207047012000E0002002B07C
:1009CC0070BD0120FBE700BF0038024060004742C9
:1009DC00264B9B6803F00C03042B44D0082B01D04E
:1009EC00234870472DE9F04B204B5A6802F03F0228
:1009FC005B6813F4800F13D01C4B5968C1F388113A
:100A0C0000231C48A1FB0001FFF7EAFB174B5B68B6
:100A1C00C3F3014301335B00B0FBF3F0BDE8F08B93
:100A2C00124B5B68C3F388131E4600275C0100253C
:100A3C00E41A65EB0705A90141EA9461A001001BCA
:100A4C0061EB0501CB0043EA5073C400A01943EBE2
:100A5C0007018B0243EA9053840220461946002377
:100A6C00FFF7BEFBD2E70348704700BF00380240D7
:100A7C000024F40040787D01002800F09D8070B5C2
:100A8C0004464F4B1B6803F00F038B4209D2CBB2C9
:100A9C004B4A1370136803F00F038B4201D00120F3
:100AAC0070BD236813F0020F17D013F0040F04D09D
:100ABC00444A936843F4E0539360236813F0080F9F
:100ACC0004D0404A936843F4604393603D4A936872
:100ADC0023F0F003A068034393600D46236813F0E2
:100AEC00010F32D06368012B21D09A1E012A25D91F
:100AFC00344A126812F0020F60D032498A6822F030
:100B0C00030213438B60FFF735FD06462D4B9B68A4
:100B1C0003F00C036268B3EB820F16D0FFF72AFDCB
:100B2C00801B41F288339842F0D90320B8E7254A5C
:100B3C00126812F4003FE0D10120B1E7214A12689B
:100B4C0012F0007FD9D10120AAE71D4B1B6803F0DE
:100B5C000F03AB4209D9EAB2194B1A701B6803F0A8
:100B6C000F03AB4201D001209AE7236813F0040F66
:100B7C0006D0144A936823F4E053E1680B43936066
:100B8C00236813F0080F07D00E4A936823F46043D0
:100B9C00216943EAC1039360FFF71AFF094B9B6875
:100BAC00C3F30313084AD35CD840084B18600020E9
:100BBC00FFF796FC002073E70120704701206FE7D8
:100BCC00003C024000380240C4100008080000201D
:100BDC00F0B4069D07684E000324B440E44327405C
:100BEC0007600768B2401743076042688B401A439E
:100BFC0042608368234083608368049AB240134345
:100C0C008360C3681C40C460C368059A02FA06F688
:100C1C001E43C660072910D9436A01F18041083987
:100C2C0089000F228A4023EA02034362436A05FAD1
:100C3C0001F119434162F0BC7047036A89000F222D
:100C4C008A4023EA02030362036A05FA01F119439D
:100C5C000162F0E770B406684D000324AC40E44335
:100C6C00264006600668AA401643066042688B4020
:100C7C00134343608368234083608368039AAA40CC
:100C8C0013438360C3681C40C460C368049A02FAAF
:100C9C0005F51D43C56070BC70470269012303FA5A
:100CAC0001F10A4201D1002070471846704700003C
:100CBC0082B0002100910B4B1A6B42F080021A6338
:100CCC001A6B02F080020092009A01911A6B42F0AA
:100CDC0001021A631B6B03F001030193019B02B029
:100CEC00704700BF0038024010B594B0302200218C
:100CFC0008A800F0CDF900240394049405940694FC
:100D0C0007940194164B1A6C42F080521A641B6CB7
:100D1C0003F080530193019B0294124A136823F44D
:100D2C00404343F480431360136803F4404302933D
:100D3C00029B0223089301230B9310230C930E9414
:100D4C0008A8FFF779FC0F230393049405940694E9
:100D5C000794214603A8FFF78FFE14B010BD00BF07
:100D6C00003802400070004080B584B04F4B5A6A86
:100D7C0042F440525A625A6A22F440525A625A6CF5
:100D8C0042F440525A641A6942F053021A611A69C9
:100D9C0022F053021A611A6B42F053021A63444F49
:100DAC00022501950024009423462246214638460C
:100DBC00FFF750FF01940095234601220D213D4879
:100DCC00FFF748FF052602960194009523462A4614
:100DDC0004213846FFF7FCFE029601940095234649
:100DEC002A4631463846FFF7F3FE07F58067029630
:100DFC000194009523462A4604213846FFF7E8FE65
:100E0C0002960194009523462A4631463846FFF750
:100E1C00DFFE07F5406702960194009523462A46AB
:100E2C0029463846FFF7D4FE0296019400952346D6
:100E3C002A4604213846FFF7CBFE02960194009512
:100E4C0023462A4631463846FFF7C2FE02960194E5
:100E5C00009523462A4606213846FFF7B9FE164D63
:100E6C001649284600F06AF8154C1649204600F041
:100E7C0065F8232000F04AF8542000F047F8FFF7FB
:100E8C0053FBFFF731FFFFF713FF284600F05FF825
:100E9C00204600F05CF800210548FFF7FEFE00300C
:100EAC0018BF0120084B1870F5E700BF003802404E
:100EBC000000024000180240003001403C00440099
:100ECC00003401403800400028000020054B9B688E
:100EDC0013F0010F04D0034BDB68DBB2024A5370F2
:100EEC00704700BF0030014028000020054B9B6874
:100EFC0013F0010F04D0034BDB68DBB2024A937092
:100F0C00704700BF00340140280000200346002831
:100F1C000EDB5B11424200F01F0002F01F0258BFB3
:100F2C005042012202FA00F0034A42F823007047B3
:100F3C0000F11F03EDE700BF00E100E003688AB297
:100F4C0013430360436843EA1141416070470368EF
:100F5C0043F040030360704782B0002100910B4BBB
:100F6C005A6C42F480425A645A6C02F480420092E9
:100F7C00009A01911A6C42F080521A641B6C03F0B7
:100F8C0080530193019B02B0704700BF00380240B0
:100F9C007047FEE7FEE7FEE7FEE7704770477047D5
:100FAC0008B5FFF7DBFA08BD0F49D1F8883043F4D8
:100FBC007003C1F888300D4B1A6842F001021A60B8
:100FCC00002098601A6822F0847222F480321A6031
:100FDC00074A5A601A6822F480221A60D8604FF0CF
:100FEC0000638B60704700BF00ED00E000380240EA
:100FFC0010300024DFF834D0002103E00C4B5B5898
:10100C00435004310B480C4B42189A42F6D30B4A0E
:10101C0002E0002342F8043B094B9A42F9D3FFF754
:10102C00C3FF00F011F8FFF79FFE7047000003208C
:10103C00EC100008000000200C0000200C00002028
:10104C0030000020FEE7000070B50D4E0D4CA41BC7
:10105C00A4100025A54209D10B4E0C4C00F020F831
:10106C00A41BA4100025A54205D170BD56F825304F
:10107C0098470135EEE756F8253098470135F2E7E9
:10108C00E4100008E4100008E4100008E810000860
:10109C0002440346934200D1704703F8011BF9E761
:1010AC00F8B500BFF8BC08BC9E467047F8B500BF49
:0810BC00F8BC08BC9E46704719
:1010C40000000000000000000102030406070809F4
:0810D40000000000010203040A
:0810DC0040F1FF7F010000005C
:0410E400D10100082E
:0410E800AD0100084E
:0C10EC0001000000100000000024F400CF
:0400000508001001DE
:00000001FF
